:1000000014C02CC02BC02AC02AC028C027C026C0BC
:1000100025C024C023C022C021C020C01FC01EC0D4
:100020001DC01CC01BC01AC019C011241FBECFEDBB
:10003000CDBF10E0A0E6B0E0E6E6F4E002C0059037
:100040000D92A039B107D9F720E0A0E9B0E001C0D6
:100050001D92A639B207E1F70AD103C2D1CF1F9290
:100060000F920FB60F9211242F938F939F9380912D
:1000700095008F5F80939500809195008A3038F0CD
:1000800010929500809194008F5F809394008091EE
:1000900094008C3338F010929400809193008F5F1D
:1000A00080939300809193008C3338F010929300EA
:1000B000809192008F5F80939200809192008831AE
:1000C00058F01092920080919000909191000196CA
:1000D0009093910080939000809190009091910076
:1000E000883E934060F01092910010929000109220
:1000F00095001092940010929300109292009F919C
:100100008F912F910F900FBE0F901F901895BA9856
:10011000BB98BC98BD98C59AC49AC39AC29A0895D0
:1001200012B882E089B98AB188648AB983B18660DD
:1001300083B9089580E48FBD2FEF39E53BBD2ABD1B
:1001400089BF88BF8BE08EBD08955D9BFECF8CB9C3
:100150000895CF93DF93CDB7DD27CA50CDBF80E39D
:1001600089838A838B838C838D838E838F83888717
:1001700089878A8780919000909191004AE0BE0122
:100180006F5F7F4F3BD1898190E0DFDF8A8190E014
:10019000DCDF8B8190E0D9DF8AE390E0D6DF8091CD
:1001A00092004AE0BE016C5F7F4F90E027D18C81C6
:1001B00090E0CBDF8D8190E0C8DF8AE390E0C5DF7F
:1001C000809193004AE0BE016A5F7F4F90E016D1B4
:1001D0008E8190E0BADF8F8190E0B7DF8AE390E014
:1001E000B4DF809194004AE0BE01685F7F4F90E0E9
:1001F00005D1888590E0A9DF898590E0A6DF8AE3B4
:1002000090E0A3DF809195004AE0BE01665F7F4FDA
:1002100090E0F4D08A8590E098DF80E290E095DF6E
:10022000C65FCDBFDF91CF91089586B38695869541
:1002300091E08927817090E0089586B38695869530
:10024000869591E08927817090E0089586B3829524
:100250008F7091E08927817090E0089586B3829530
:100260008695877091E08927817090E00895CF93FB
:10027000DF93CDB7DD27C053CDBF49DF51DF8CE021
:10028000E0E6F0E0DE01119601900D928A95E1F72B
:100290008CE0ECE6F0E0DE011D9601900D928A956F
:1002A000E1F78CE0E8E7F0E0DE01599601900D926D
:1002B0008A95E1F78CE0E4E8F0E0DE0195960190A4
:1002C0000D928A95E1F736DF78948EE490E03DDF79
:1002D00089E690E03ADF8BE690E037DF88E690E051
:1002E00034DF89E690E031DF8CE690E02EDF80E2BB
:1002F00090E02BDF81E390E028DF86E390E025DFCC
:1003000082E390E022DF89E390E01FDF89E390E061
:100310001CDF82E390E019DF80E390E016DF8AE0E3
:1003200090E013DF8DE090E010DF4E018DE0880E4D
:10033000911C5E01E9E1AE0EB11C6E01F5E2CF0E3B
:10034000D11C7E0181E3E80EF11C6FDF892BC9F41B
:1003500074DF892BB1F47ADF892B99F47FDF892B45
:10036000A1F30FC062DF892BE9F7F3DE8E010F5F87
:100370001F4FF80181918F0190E0E7DE8016910612
:10038000C1F753DF892B71F70FC057DF892BE9F7CE
:10039000E0DE8E01035F1F4FF80181918F0190E035
:1003A000D4DEA016B106C1F748DF892B71F70FC064
:1003B0004DDF892BE9F7CDDE8E01075E1F4FF80177
:1003C00081918F0190E0C1DEC016D106C1F73EDFFA
:1003D000892B71F70FC042DF892BE9F7BADE8E0156
:1003E0000B5D1F4FF80181918F0190E0AEDE0E157D
:1003F0001F05C1F733DF892B71F7A7CFBB274A3021
:1004000031F4992322F4BDE2909581959F4F01C06C
:10041000BB27FB015527AA27880F991FAA1FA417DE
:1004200010F0A41B83955051B9F7A05DAA3308F0D2
:10043000A95DA193009779F7B111B1931192CB0106
:1004400000C0DC01FC01672F71917723E1F732973F
:1004500004C07C916D9370836291AE17BF07C8F39F
:060460000895F894FFCF9F
:100466004368616E6E656C20310A0D004368616EEB
:100476006E656C20320A0D004368616E6E656C20F5
:10048600330A0D004368616E6E656C20340A0D00F8
:00000001FF
